All code's been kindly generated by ChatGPT-4 !

For the raw_eth_ipv4_udp_tx raw sample code:

1. Let's keep an eye on the network tx; in a terminal window run:
sudo tcpdump -i wlo1 udp port 54321 -X

2. Run the program in another terminal window
./raw_eth_ipv4_udp_tx

You should see tcpdump output (something) like this:

tcpdump: verbose output suppressed, use -v[v]... for full protocol decode
listening on wlo1, link-type EN10MB (Ethernet), snapshot length 262144 bytes
13:18:11.720327 IP 192.168.0.100.12345 > 192.168.0.255.54321: UDP, length 11
	0x0000:  4500 0027 3039 0000 4011 c7d9 c0a8 0064  E..'09..@......d
	0x0010:  c0a8 00ff 3039 d431 0013 cf05 4865 6c6c  ....09.1....Hell
	0x0020:  6f2c 2055 4450 21                        o,.UDP!

Notice the 'Hello, UDP!' payload.
